:020000040000FA
:1000000028288F018E00FF308E07031C8F07031CEA
:10001000232803308D00DF300F2003288D01E83EB8
:100020008C008D09FC30031C18288C070318152838
:100030008C0764008D0F15280C181E288C1C222894
:1000400000002228080083130313831264000800B1
:100050008316860183120130A4004F30A5001230B0
:10006000A6000630A7004C30A8002430A90020309C
:10007000AA000F30AB00AC010430AD00B001300875
:10008000243E84000008860003308F00E830022000
:10009000B00A64000A303002031850283F28522862
:0800A000B0013F286300522863
:02400E00FD3F74
:00000001FF
