:020000040000FA
:1000000044288F018E00FF308E07031C8F07031CCE
:100010003F2803308D00DF300F2003288D01E83E9C
:100020008C008D09FC30031C18288C070318152838
:100030008C0764008D0F15280C181E288C1C222894
:1000400000002228080091019001103092000D0D4F
:10005000900D910D0E0890020F08031C0F0F9102D6
:10006000031839280E0890070F0803180F0F91077F
:1000700003108C0D8D0D920B27280C083F2883133D
:10008000031383126400080083168501860183121E
:100090000130A4004F30A5001230A6000630A700A2
:1000A0004C30A8002430A9002030AA000F30AB004B
:1000B000AC010430AD00B501B401FF30B300013034
:1000C000AE000230AF000430B0003308B500350890
:1000D0008C008D010A308E008F0123201008B6009D
:1000E0003608B50235088C008D0164308E008F0112
:1000F00023201008B7003708B50237088C008D019F
:100100000A308E008F012320B70035088C008D0146
:1001100064308E008F012320B8003608243E84000E
:100120000008860030088500053001203708243E8D
:100130008400000886002F0885000530012038085B
:10014000243E8400000886002E088500053001202A
:10015000B40A6400143034020318B0288D28BA2879
:10016000B401B30364003308003C031DB928FF3019
:08017000B30065286300BA2802
:02400E00FD3F74
:00000001FF
